{
  "contractName": "DutchAuction",
  "abi": [
    {
      "inputs": [
        {
          "internalType": "address",
          "name": "_assetContract",
          "type": "address"
        },
        {
          "internalType": "uint256",
          "name": "_tokenId",
          "type": "uint256"
        },
        {
          "internalType": "uint256",
          "name": "_startPrice",
          "type": "uint256"
        },
        {
          "internalType": "uint256",
          "name": "_reservePrice",
          "type": "uint256"
        },
        {
          "internalType": "uint256",
          "name": "_endTime",
          "type": "uint256"
        }
      ],
      "stateMutability": "nonpayable",
      "type": "constructor"
    },
    {
      "anonymous": false,
      "inputs": [
        {
          "indexed": true,
          "internalType": "address",
          "name": "previousOwner",
          "type": "address"
        },
        {
          "indexed": true,
          "internalType": "address",
          "name": "newOwner",
          "type": "address"
        }
      ],
      "name": "OwnershipTransferred",
      "type": "event"
    },
    {
      "anonymous": false,
      "inputs": [
        {
          "indexed": false,
          "internalType": "address",
          "name": "_bidder",
          "type": "address"
        },
        {
          "indexed": false,
          "internalType": "uint256",
          "name": "_amount",
          "type": "uint256"
        }
      ],
      "name": "bidMade",
      "type": "event"
    },
    {
      "inputs": [],
      "name": "assetContract",
      "outputs": [
        {
          "internalType": "address",
          "name": "",
          "type": "address"
        }
      ],
      "stateMutability": "view",
      "type": "function"
    },
    {
      "inputs": [],
      "name": "bidder",
      "outputs": [
        {
          "internalType": "address",
          "name": "",
          "type": "address"
        }
      ],
      "stateMutability": "view",
      "type": "function"
    },
    {
      "inputs": [],
      "name": "endTime",
      "outputs": [
        {
          "internalType": "uint256",
          "name": "",
          "type": "uint256"
        }
      ],
      "stateMutability": "view",
      "type": "function"
    },
    {
      "inputs": [],
      "name": "owner",
      "outputs": [
        {
          "internalType": "address",
          "name": "",
          "type": "address"
        }
      ],
      "stateMutability": "view",
      "type": "function"
    },
    {
      "inputs": [],
      "name": "renounceOwnership",
      "outputs": [],
      "stateMutability": "nonpayable",
      "type": "function"
    },
    {
      "inputs": [],
      "name": "reservePrice",
      "outputs": [
        {
          "internalType": "uint256",
          "name": "",
          "type": "uint256"
        }
      ],
      "stateMutability": "view",
      "type": "function"
    },
    {
      "inputs": [],
      "name": "seller",
      "outputs": [
        {
          "internalType": "address",
          "name": "",
          "type": "address"
        }
      ],
      "stateMutability": "view",
      "type": "function"
    },
    {
      "inputs": [],
      "name": "startPrice",
      "outputs": [
        {
          "internalType": "uint256",
          "name": "",
          "type": "uint256"
        }
      ],
      "stateMutability": "view",
      "type": "function"
    },
    {
      "inputs": [],
      "name": "startTime",
      "outputs": [
        {
          "internalType": "uint256",
          "name": "",
          "type": "uint256"
        }
      ],
      "stateMutability": "view",
      "type": "function"
    },
    {
      "inputs": [],
      "name": "tokenId",
      "outputs": [
        {
          "internalType": "uint256",
          "name": "",
          "type": "uint256"
        }
      ],
      "stateMutability": "view",
      "type": "function"
    },
    {
      "inputs": [
        {
          "internalType": "address",
          "name": "newOwner",
          "type": "address"
        }
      ],
      "name": "transferOwnership",
      "outputs": [],
      "stateMutability": "nonpayable",
      "type": "function"
    }
  ],
  "bytecode": "0x60806040523480156200001157600080fd5b5060405162000bd738038062000bd78339818101604052810190620000379190620002be565b620000576200004b6200014d60201b60201c565b6200015560201b60201c565b8183116200009c576040517f08c379a00000000000000000000000000000000000000000000000000000000081526004016200009390620003cd565b60405180910390fd5b4260078190555060075460085411620000ec576040517f08c379a0000000000000000000000000000000000000000000000000000000008152600401620000e3906200048b565b60405180910390fd5b84600160006101000a81548173ffffffffffffffffffffffffffffffffffffffff021916908373ffffffffffffffffffffffffffffffffffffffff1602179055508360028190555082600581905550806008819055505050505050620004ad565b600033905090565b60008060009054906101000a900473ffffffffffffffffffffffffffffffffffffffff169050816000806101000a81548173ffffffffffffffffffffffffffffffffffffffff021916908373ffffffffffffffffffffffffffffffffffffffff1602179055508173ffffffffffffffffffffffffffffffffffffffff168173ffffffffffffffffffffffffffffffffffffffff167f8be0079c531659141344cd1fd0a4f28419497f9722a3daafe3b4186f6b6457e060405160405180910390a35050565b600080fd5b600073ffffffffffffffffffffffffffffffffffffffff82169050919050565b60006200024b826200021e565b9050919050565b6200025d816200023e565b81146200026957600080fd5b50565b6000815190506200027d8162000252565b92915050565b6000819050919050565b620002988162000283565b8114620002a457600080fd5b50565b600081519050620002b8816200028d565b92915050565b600080600080600060a08688031215620002dd57620002dc62000219565b5b6000620002ed888289016200026c565b95505060206200030088828901620002a7565b94505060406200031388828901620002a7565b93505060606200032688828901620002a7565b92505060806200033988828901620002a7565b9150509295509295909350565b600082825260208201905092915050565b7f5374617274207072696365204d55535420626520686967686572207468616e2060008201527f7265736572766520707269636521000000000000000000000000000000000000602082015250565b6000620003b5602e8362000346565b9150620003c28262000357565b604082019050919050565b60006020820190508181036000830152620003e881620003a6565b9050919050565b7f5468652064617465206f662074686520656e64206f662061756374696f6e204d60008201527f55535420636f6d6520616674657220746865207374617274206f66207468652060208201527f61756374696f6e21000000000000000000000000000000000000000000000000604082015250565b60006200047360488362000346565b91506200048082620003ef565b606082019050919050565b60006020820190508181036000830152620004a68162000464565b9050919050565b61071a80620004bd6000396000f3fe608060405234801561001057600080fd5b50600436106100a95760003560e01c806378e979251161007157806378e97925146101305780638da5cb5b1461014e578063db2e1eed1461016c578063f1a9af891461018a578063f2fde38b146101a8578063f496d882146101c4576100a9565b806308551a53146100ae57806317d70f7c146100cc5780633197cbb6146100ea5780634d16304f14610108578063715018a614610126575b600080fd5b6100b66101e2565b6040516100c39190610528565b60405180910390f35b6100d4610208565b6040516100e1919061055c565b60405180910390f35b6100f261020e565b6040516100ff919061055c565b60405180910390f35b610110610214565b60405161011d9190610528565b60405180910390f35b61012e61023a565b005b6101386102c2565b604051610145919061055c565b60405180910390f35b6101566102c8565b6040516101639190610528565b60405180910390f35b6101746102f1565b604051610181919061055c565b60405180910390f35b6101926102f7565b60405161019f919061055c565b60405180910390f35b6101c260048036038101906101bd91906105a8565b6102fd565b005b6101cc6103f5565b6040516101d99190610528565b60405180910390f35b600360009054906101000a900473ffffffffffffffffffffffffffffffffffffffff1681565b60025481565b60085481565b600160009054906101000a900473ffffffffffffffffffffffffffffffffffffffff1681565b61024261041b565b73ffffffffffffffffffffffffffffffffffffffff166102606102c8565b73ffffffffffffffffffffffffffffffffffffffff16146102b6576040517f08c379a00000000000000000000000000000000000000000000000000000000081526004016102ad90610632565b60405180910390fd5b6102c06000610423565b565b60075481565b60008060009054906101000a900473ffffffffffffffffffffffffffffffffffffffff16905090565b60065481565b60055481565b61030561041b565b73ffffffffffffffffffffffffffffffffffffffff166103236102c8565b73ffffffffffffffffffffffffffffffffffffffff1614610379576040517f08c379a000000000000000000000000000000000000000000000000000000000815260040161037090610632565b60405180910390fd5b600073ffffffffffffffffffffffffffffffffffffffff168173ffffffffffffffffffffffffffffffffffffffff1614156103e9576040517f08c379a00000000000000000000000000000000000000000000000000000000081526004016103e0906106c4565b60405180910390fd5b6103f281610423565b50565b600460009054906101000a900473ffffffffffffffffffffffffffffffffffffffff1681565b600033905090565b60008060009054906101000a900473ffffffffffffffffffffffffffffffffffffffff169050816000806101000a81548173ffffffffffffffffffffffffffffffffffffffff021916908373ffffffffffffffffffffffffffffffffffffffff1602179055508173ffffffffffffffffffffffffffffffffffffffff168173ffffffffffffffffffffffffffffffffffffffff167f8be0079c531659141344cd1fd0a4f28419497f9722a3daafe3b4186f6b6457e060405160405180910390a35050565b600073ffffffffffffffffffffffffffffffffffffffff82169050919050565b6000610512826104e7565b9050919050565b61052281610507565b82525050565b600060208201905061053d6000830184610519565b92915050565b6000819050919050565b61055681610543565b82525050565b6000602082019050610571600083018461054d565b92915050565b600080fd5b61058581610507565b811461059057600080fd5b50565b6000813590506105a28161057c565b92915050565b6000602082840312156105be576105bd610577565b5b60006105cc84828501610593565b91505092915050565b600082825260208201905092915050565b7f4f776e61626c653a2063616c6c6572206973206e6f7420746865206f776e6572600082015250565b600061061c6020836105d5565b9150610627826105e6565b602082019050919050565b6000602082019050818103600083015261064b8161060f565b9050919050565b7f4f776e61626c653a206e6577206f776e657220697320746865207a65726f206160008201527f6464726573730000000000000000000000000000000000000000000000000000602082015250565b60006106ae6026836105d5565b91506106b982610652565b604082019050919050565b600060208201905081810360008301526106dd816106a1565b905091905056fea2646970667358221220c1a455366566c0ff6f2aba2fde5cec80f16a00b7046af0a30c15d623b7e8991264736f6c634300080a0033",
  "immutableReferences": {},
  "source": "// SPDX-License-Identifier: MIT\npragma solidity >=0.4.22 <0.9.0;\n\nimport \"@openzeppelin/contracts/access/Ownable.sol\";\n\ncontract DutchAuction is Ownable {\n    event bidMade(address _bidder, uint _amount);\n\n    address public assetContract;\n    uint public tokenId;\n    address public seller;\n    address public bidder;\n    uint public startPrice;\n    uint public reservePrice;\n    uint public startTime;\n    uint public endTime;\n\n    constructor(\n        address _assetContract,\n        uint _tokenId,\n        uint _startPrice,\n        uint _reservePrice,\n        uint _endTime\n    ) {\n        require(_startPrice > _reservePrice, \"Start price MUST be higher than reserve price!\");\n        startTime = block.timestamp;\n        require(endTime > startTime, \"The date of the end of auction MUST come after the start of the auction!\");\n        assetContract = _assetContract;\n        tokenId = _tokenId;\n        startPrice = _startPrice;\n        endTime = _endTime;\n    }\n}",
  "sourcePath": "/Users/Guled/Visual Studio Code/Dutch-Auction/contracts/DutchAuction.sol",
  "compiler": {
    "name": "solc",
    "version": "0.8.10+commit.fc410830.Emscripten.clang"
  },
  "schemaVersion": "3.4.4",
  "updatedAt": "2022-01-11T18:47:14.043Z",
  "devdoc": {
    "kind": "dev",
    "methods": {
      "owner()": {
        "details": "Returns the address of the current owner."
      },
      "renounceOwnership()": {
        "details": "Leaves the contract without owner. It will not be possible to call `onlyOwner` functions anymore. Can only be called by the current owner. NOTE: Renouncing ownership will leave the contract without an owner, thereby removing any functionality that is only available to the owner."
      },
      "transferOwnership(address)": {
        "details": "Transfers ownership of the contract to a new account (`newOwner`). Can only be called by the current owner."
      }
    },
    "version": 1
  },
  "userdoc": {
    "kind": "user",
    "methods": {},
    "version": 1
  }
}