{
  "contractName": "DutchAuction",
  "abi": [
    {
      "inputs": [
        {
          "internalType": "address",
          "name": "_assetContract",
          "type": "address"
        },
        {
          "internalType": "uint256",
          "name": "_tokenId",
          "type": "uint256"
        },
        {
          "internalType": "uint256",
          "name": "_startPrice",
          "type": "uint256"
        },
        {
          "internalType": "uint256",
          "name": "_reservePrice",
          "type": "uint256"
        },
        {
          "internalType": "uint256",
          "name": "_endTime",
          "type": "uint256"
        }
      ],
      "stateMutability": "nonpayable",
      "type": "constructor"
    },
    {
      "anonymous": false,
      "inputs": [
        {
          "indexed": true,
          "internalType": "address",
          "name": "previousOwner",
          "type": "address"
        },
        {
          "indexed": true,
          "internalType": "address",
          "name": "newOwner",
          "type": "address"
        }
      ],
      "name": "OwnershipTransferred",
      "type": "event"
    },
    {
      "anonymous": false,
      "inputs": [
        {
          "indexed": false,
          "internalType": "address",
          "name": "_bidder",
          "type": "address"
        },
        {
          "indexed": false,
          "internalType": "uint256",
          "name": "_amount",
          "type": "uint256"
        }
      ],
      "name": "bidMade",
      "type": "event"
    },
    {
      "inputs": [],
      "name": "assetContract",
      "outputs": [
        {
          "internalType": "address",
          "name": "",
          "type": "address"
        }
      ],
      "stateMutability": "view",
      "type": "function"
    },
    {
      "inputs": [],
      "name": "bidder",
      "outputs": [
        {
          "internalType": "address payable",
          "name": "",
          "type": "address"
        }
      ],
      "stateMutability": "view",
      "type": "function"
    },
    {
      "inputs": [],
      "name": "endTime",
      "outputs": [
        {
          "internalType": "uint256",
          "name": "",
          "type": "uint256"
        }
      ],
      "stateMutability": "view",
      "type": "function"
    },
    {
      "inputs": [],
      "name": "owner",
      "outputs": [
        {
          "internalType": "address",
          "name": "",
          "type": "address"
        }
      ],
      "stateMutability": "view",
      "type": "function"
    },
    {
      "inputs": [],
      "name": "renounceOwnership",
      "outputs": [],
      "stateMutability": "nonpayable",
      "type": "function"
    },
    {
      "inputs": [],
      "name": "reservePrice",
      "outputs": [
        {
          "internalType": "uint256",
          "name": "",
          "type": "uint256"
        }
      ],
      "stateMutability": "view",
      "type": "function"
    },
    {
      "inputs": [],
      "name": "seller",
      "outputs": [
        {
          "internalType": "address payable",
          "name": "",
          "type": "address"
        }
      ],
      "stateMutability": "view",
      "type": "function"
    },
    {
      "inputs": [],
      "name": "startPrice",
      "outputs": [
        {
          "internalType": "uint256",
          "name": "",
          "type": "uint256"
        }
      ],
      "stateMutability": "view",
      "type": "function"
    },
    {
      "inputs": [],
      "name": "startTime",
      "outputs": [
        {
          "internalType": "uint256",
          "name": "",
          "type": "uint256"
        }
      ],
      "stateMutability": "view",
      "type": "function"
    },
    {
      "inputs": [],
      "name": "tokenId",
      "outputs": [
        {
          "internalType": "uint256",
          "name": "",
          "type": "uint256"
        }
      ],
      "stateMutability": "view",
      "type": "function"
    },
    {
      "inputs": [
        {
          "internalType": "address",
          "name": "newOwner",
          "type": "address"
        }
      ],
      "name": "transferOwnership",
      "outputs": [],
      "stateMutability": "nonpayable",
      "type": "function"
    },
    {
      "inputs": [],
      "name": "bid",
      "outputs": [],
      "stateMutability": "payable",
      "type": "function"
    }
  ],
  "bytecode": "0x60806040523480156200001157600080fd5b5060405162001053380380620010538339818101604052810190620000379190620002bc565b620000576200004b6200014b60201b60201c565b6200015360201b60201c565b8183116200009c576040517f08c379a00000000000000000000000000000000000000000000000000000000081526004016200009390620003cb565b60405180910390fd5b426007819055506007548111620000ea576040517f08c379a0000000000000000000000000000000000000000000000000000000008152600401620000e19062000489565b60405180910390fd5b84600160006101000a81548173ffffffffffffffffffffffffffffffffffffffff021916908373ffffffffffffffffffffffffffffffffffffffff1602179055508360028190555082600581905550806008819055505050505050620004ab565b600033905090565b60008060009054906101000a900473ffffffffffffffffffffffffffffffffffffffff169050816000806101000a81548173ffffffffffffffffffffffffffffffffffffffff021916908373ffffffffffffffffffffffffffffffffffffffff1602179055508173ffffffffffffffffffffffffffffffffffffffff168173ffffffffffffffffffffffffffffffffffffffff167f8be0079c531659141344cd1fd0a4f28419497f9722a3daafe3b4186f6b6457e060405160405180910390a35050565b600080fd5b600073ffffffffffffffffffffffffffffffffffffffff82169050919050565b600062000249826200021c565b9050919050565b6200025b816200023c565b81146200026757600080fd5b50565b6000815190506200027b8162000250565b92915050565b6000819050919050565b620002968162000281565b8114620002a257600080fd5b50565b600081519050620002b6816200028b565b92915050565b600080600080600060a08688031215620002db57620002da62000217565b5b6000620002eb888289016200026a565b9550506020620002fe88828901620002a5565b94505060406200031188828901620002a5565b93505060606200032488828901620002a5565b92505060806200033788828901620002a5565b9150509295509295909350565b600082825260208201905092915050565b7f5374617274207072696365204d55535420626520686967686572207468616e2060008201527f7265736572766520707269636521000000000000000000000000000000000000602082015250565b6000620003b3602e8362000344565b9150620003c08262000355565b604082019050919050565b60006020820190508181036000830152620003e681620003a4565b9050919050565b7f5468652064617465206f662074686520656e64206f662061756374696f6e204d60008201527f55535420636f6d6520616674657220746865207374617274206f66207468652060208201527f61756374696f6e21000000000000000000000000000000000000000000000000604082015250565b60006200047160488362000344565b91506200047e82620003ed565b606082019050919050565b60006020820190508181036000830152620004a48162000462565b9050919050565b610b9880620004bb6000396000f3fe6080604052600436106100a75760003560e01c806378e979251161006457806378e97925146101795780638da5cb5b146101a4578063db2e1eed146101cf578063f1a9af89146101fa578063f2fde38b14610225578063f496d8821461024e576100a7565b806308551a53146100ac57806317d70f7c146100d75780631998aeef146101025780633197cbb61461010c5780634d16304f14610137578063715018a614610162575b600080fd5b3480156100b857600080fd5b506100c1610279565b6040516100ce919061074f565b60405180910390f35b3480156100e357600080fd5b506100ec61029f565b6040516100f99190610783565b60405180910390f35b61010a6102a5565b005b34801561011857600080fd5b50610121610435565b60405161012e9190610783565b60405180910390f35b34801561014357600080fd5b5061014c61043b565b60405161015991906107bf565b60405180910390f35b34801561016e57600080fd5b50610177610461565b005b34801561018557600080fd5b5061018e6104e9565b60405161019b9190610783565b60405180910390f35b3480156101b057600080fd5b506101b96104ef565b6040516101c691906107bf565b60405180910390f35b3480156101db57600080fd5b506101e4610518565b6040516101f19190610783565b60405180910390f35b34801561020657600080fd5b5061020f61051e565b60405161021c9190610783565b60405180910390f35b34801561023157600080fd5b5061024c6004803603810190610247919061080b565b610524565b005b34801561025a57600080fd5b5061026361061c565b604051610270919061074f565b60405180910390f35b600360009054906101000a900473ffffffffffffffffffffffffffffffffffffffff1681565b60025481565b6005543373ffffffffffffffffffffffffffffffffffffffff16311015610301576040517f08c379a00000000000000000000000000000000000000000000000000000000081526004016102f8906108bb565b60405180910390fd5b600073ffffffffffffffffffffffffffffffffffffffff16600460009054906101000a900473ffffffffffffffffffffffffffffffffffffffff1673ffffffffffffffffffffffffffffffffffffffff1614610392576040517f08c379a000000000000000000000000000000000000000000000000000000000815260040161038990610927565b60405180910390fd5b33600460006101000a81548173ffffffffffffffffffffffffffffffffffffffff021916908373ffffffffffffffffffffffffffffffffffffffff16021790555060006007546008546103e59190610976565b6006546005546103f59190610976565b6103ff91906109d9565b90506000426007546104119190610976565b9050600082826104219190610a0a565b60055461042e9190610976565b9050505050565b60085481565b600160009054906101000a900473ffffffffffffffffffffffffffffffffffffffff1681565b610469610642565b73ffffffffffffffffffffffffffffffffffffffff166104876104ef565b73ffffffffffffffffffffffffffffffffffffffff16146104dd576040517f08c379a00000000000000000000000000000000000000000000000000000000081526004016104d490610ab0565b60405180910390fd5b6104e7600061064a565b565b60075481565b60008060009054906101000a900473ffffffffffffffffffffffffffffffffffffffff16905090565b60065481565b60055481565b61052c610642565b73ffffffffffffffffffffffffffffffffffffffff1661054a6104ef565b73ffffffffffffffffffffffffffffffffffffffff16146105a0576040517f08c379a000000000000000000000000000000000000000000000000000000000815260040161059790610ab0565b60405180910390fd5b600073ffffffffffffffffffffffffffffffffffffffff168173ffffffffffffffffffffffffffffffffffffffff161415610610576040517f08c379a000000000000000000000000000000000000000000000000000000000815260040161060790610b42565b60405180910390fd5b6106198161064a565b50565b600460009054906101000a900473ffffffffffffffffffffffffffffffffffffffff1681565b600033905090565b60008060009054906101000a900473ffffffffffffffffffffffffffffffffffffffff169050816000806101000a81548173ffffffffffffffffffffffffffffffffffffffff021916908373ffffffffffffffffffffffffffffffffffffffff1602179055508173ffffffffffffffffffffffffffffffffffffffff168173ffffffffffffffffffffffffffffffffffffffff167f8be0079c531659141344cd1fd0a4f28419497f9722a3daafe3b4186f6b6457e060405160405180910390a35050565b600073ffffffffffffffffffffffffffffffffffffffff82169050919050565b60006107398261070e565b9050919050565b6107498161072e565b82525050565b60006020820190506107646000830184610740565b92915050565b6000819050919050565b61077d8161076a565b82525050565b60006020820190506107986000830184610774565b92915050565b60006107a98261070e565b9050919050565b6107b98161079e565b82525050565b60006020820190506107d460008301846107b0565b92915050565b600080fd5b6107e88161079e565b81146107f357600080fd5b50565b600081359050610805816107df565b92915050565b600060208284031215610821576108206107da565b5b600061082f848285016107f6565b91505092915050565b600082825260208201905092915050565b7f536f7272792c20796f7520646f206e6f7420686176652074686520524551554960008201527f524544206361706974616c20746f207061727469636970617465210000000000602082015250565b60006108a5603b83610838565b91506108b082610849565b604082019050919050565b600060208201905081810360008301526108d481610898565b9050919050565b7f536f7272792c20746869732061756374696f6e2068617320656e646564210000600082015250565b6000610911601e83610838565b915061091c826108db565b602082019050919050565b6000602082019050818103600083015261094081610904565b9050919050565b7f4e487b7100000000000000000000000000000000000000000000000000000000600052601160045260246000fd5b60006109818261076a565b915061098c8361076a565b92508282101561099f5761099e610947565b5b828203905092915050565b7f4e487b7100000000000000000000000000000000000000000000000000000000600052601260045260246000fd5b60006109e48261076a565b91506109ef8361076a565b9250826109ff576109fe6109aa565b5b828204905092915050565b6000610a158261076a565b9150610a208361076a565b9250817fffffffffffffffffffffffffffffffffffffffffffffffffffffffffffffffff0483118215151615610a5957610a58610947565b5b828202905092915050565b7f4f776e61626c653a2063616c6c6572206973206e6f7420746865206f776e6572600082015250565b6000610a9a602083610838565b9150610aa582610a64565b602082019050919050565b60006020820190508181036000830152610ac981610a8d565b9050919050565b7f4f776e61626c653a206e6577206f776e657220697320746865207a65726f206160008201527f6464726573730000000000000000000000000000000000000000000000000000602082015250565b6000610b2c602683610838565b9150610b3782610ad0565b604082019050919050565b60006020820190508181036000830152610b5b81610b1f565b905091905056fea2646970667358221220a52776f832ffa6ff425672aca9620dab96b9cb65b8c1369b28036abce395c60e64736f6c634300080a0033",
  "immutableReferences": {},
  "source": "// SPDX-License-Identifier: MIT\npragma solidity >=0.4.22 <0.9.0;\n\nimport \"@openzeppelin/contracts/access/Ownable.sol\";\n\ncontract DutchAuction is Ownable {\n    event bidMade(address _bidder, uint _amount);\n\n    address public assetContract;\n    uint public tokenId;\n    address payable public seller;\n    address payable public bidder;\n    uint public startPrice;\n    uint public reservePrice;\n    uint public startTime;\n    uint public endTime;\n\n    constructor(\n        address _assetContract,\n        uint _tokenId,\n        uint _startPrice,\n        uint _reservePrice,\n        uint _endTime\n    ) {\n        require(_startPrice > _reservePrice, \"Start price MUST be higher than reserve price!\");\n        startTime = block.timestamp;\n        require(_endTime > startTime, \"The date of the end of auction MUST come after the start of the auction!\");\n        assetContract = _assetContract;\n        tokenId = _tokenId;\n        startPrice = _startPrice;\n        endTime = _endTime;\n    }\n\n    function bid() payable public {\n        require(msg.sender.balance >= startPrice, \"Sorry, you do not have the REQUIRED capital to participate!\");\n        require(bidder == address(0), \"Sorry, this auction has ended!\");\n        bidder = payable(msg.sender);\n        uint pricePerSecond = (startPrice - reservePrice)/(endTime - startTime);\n        uint timeElapsed = startTime - block.timestamp;\n        uint currentPrice = startPrice - (timeElapsed * pricePerSecond);\n    }\n}",
  "sourcePath": "/Users/Guled/Visual Studio Code/Dutch-Auction/contracts/DutchAuction.sol",
  "compiler": {
    "name": "solc",
    "version": "0.8.10+commit.fc410830.Emscripten.clang"
  },
  "schemaVersion": "3.4.4",
  "updatedAt": "2022-01-18T15:10:31.977Z",
  "devdoc": {
    "kind": "dev",
    "methods": {
      "owner()": {
        "details": "Returns the address of the current owner."
      },
      "renounceOwnership()": {
        "details": "Leaves the contract without owner. It will not be possible to call `onlyOwner` functions anymore. Can only be called by the current owner. NOTE: Renouncing ownership will leave the contract without an owner, thereby removing any functionality that is only available to the owner."
      },
      "transferOwnership(address)": {
        "details": "Transfers ownership of the contract to a new account (`newOwner`). Can only be called by the current owner."
      }
    },
    "version": 1
  },
  "userdoc": {
    "kind": "user",
    "methods": {},
    "version": 1
  }
}