{
  "contractName": "TestCollectible",
  "abi": [
    {
      "inputs": [],
      "stateMutability": "nonpayable",
      "type": "constructor"
    },
    {
      "anonymous": false,
      "inputs": [
        {
          "indexed": true,
          "internalType": "address",
          "name": "owner",
          "type": "address"
        },
        {
          "indexed": true,
          "internalType": "address",
          "name": "approved",
          "type": "address"
        },
        {
          "indexed": true,
          "internalType": "uint256",
          "name": "tokenId",
          "type": "uint256"
        }
      ],
      "name": "Approval",
      "type": "event"
    },
    {
      "anonymous": false,
      "inputs": [
        {
          "indexed": true,
          "internalType": "address",
          "name": "owner",
          "type": "address"
        },
        {
          "indexed": true,
          "internalType": "address",
          "name": "operator",
          "type": "address"
        },
        {
          "indexed": false,
          "internalType": "bool",
          "name": "approved",
          "type": "bool"
        }
      ],
      "name": "ApprovalForAll",
      "type": "event"
    },
    {
      "anonymous": false,
      "inputs": [
        {
          "indexed": true,
          "internalType": "address",
          "name": "from",
          "type": "address"
        },
        {
          "indexed": true,
          "internalType": "address",
          "name": "to",
          "type": "address"
        },
        {
          "indexed": true,
          "internalType": "uint256",
          "name": "tokenId",
          "type": "uint256"
        }
      ],
      "name": "Transfer",
      "type": "event"
    },
    {
      "inputs": [
        {
          "internalType": "address",
          "name": "to",
          "type": "address"
        },
        {
          "internalType": "uint256",
          "name": "tokenId",
          "type": "uint256"
        }
      ],
      "name": "approve",
      "outputs": [],
      "stateMutability": "nonpayable",
      "type": "function"
    },
    {
      "inputs": [
        {
          "internalType": "address",
          "name": "owner",
          "type": "address"
        }
      ],
      "name": "balanceOf",
      "outputs": [
        {
          "internalType": "uint256",
          "name": "",
          "type": "uint256"
        }
      ],
      "stateMutability": "view",
      "type": "function"
    },
    {
      "inputs": [
        {
          "internalType": "uint256",
          "name": "tokenId",
          "type": "uint256"
        }
      ],
      "name": "getApproved",
      "outputs": [
        {
          "internalType": "address",
          "name": "",
          "type": "address"
        }
      ],
      "stateMutability": "view",
      "type": "function"
    },
    {
      "inputs": [
        {
          "internalType": "address",
          "name": "owner",
          "type": "address"
        },
        {
          "internalType": "address",
          "name": "operator",
          "type": "address"
        }
      ],
      "name": "isApprovedForAll",
      "outputs": [
        {
          "internalType": "bool",
          "name": "",
          "type": "bool"
        }
      ],
      "stateMutability": "view",
      "type": "function"
    },
    {
      "inputs": [],
      "name": "name",
      "outputs": [
        {
          "internalType": "string",
          "name": "",
          "type": "string"
        }
      ],
      "stateMutability": "view",
      "type": "function"
    },
    {
      "inputs": [
        {
          "internalType": "uint256",
          "name": "tokenId",
          "type": "uint256"
        }
      ],
      "name": "ownerOf",
      "outputs": [
        {
          "internalType": "address",
          "name": "",
          "type": "address"
        }
      ],
      "stateMutability": "view",
      "type": "function"
    },
    {
      "inputs": [
        {
          "internalType": "address",
          "name": "from",
          "type": "address"
        },
        {
          "internalType": "address",
          "name": "to",
          "type": "address"
        },
        {
          "internalType": "uint256",
          "name": "tokenId",
          "type": "uint256"
        }
      ],
      "name": "safeTransferFrom",
      "outputs": [],
      "stateMutability": "nonpayable",
      "type": "function"
    },
    {
      "inputs": [
        {
          "internalType": "address",
          "name": "from",
          "type": "address"
        },
        {
          "internalType": "address",
          "name": "to",
          "type": "address"
        },
        {
          "internalType": "uint256",
          "name": "tokenId",
          "type": "uint256"
        },
        {
          "internalType": "bytes",
          "name": "_data",
          "type": "bytes"
        }
      ],
      "name": "safeTransferFrom",
      "outputs": [],
      "stateMutability": "nonpayable",
      "type": "function"
    },
    {
      "inputs": [
        {
          "internalType": "address",
          "name": "operator",
          "type": "address"
        },
        {
          "internalType": "bool",
          "name": "approved",
          "type": "bool"
        }
      ],
      "name": "setApprovalForAll",
      "outputs": [],
      "stateMutability": "nonpayable",
      "type": "function"
    },
    {
      "inputs": [
        {
          "internalType": "bytes4",
          "name": "interfaceId",
          "type": "bytes4"
        }
      ],
      "name": "supportsInterface",
      "outputs": [
        {
          "internalType": "bool",
          "name": "",
          "type": "bool"
        }
      ],
      "stateMutability": "view",
      "type": "function"
    },
    {
      "inputs": [],
      "name": "symbol",
      "outputs": [
        {
          "internalType": "string",
          "name": "",
          "type": "string"
        }
      ],
      "stateMutability": "view",
      "type": "function"
    },
    {
      "inputs": [],
      "name": "tokenCounter",
      "outputs": [
        {
          "internalType": "uint256",
          "name": "",
          "type": "uint256"
        }
      ],
      "stateMutability": "view",
      "type": "function"
    },
    {
      "inputs": [
        {
          "internalType": "uint256",
          "name": "tokenId",
          "type": "uint256"
        }
      ],
      "name": "tokenURI",
      "outputs": [
        {
          "internalType": "string",
          "name": "",
          "type": "string"
        }
      ],
      "stateMutability": "view",
      "type": "function"
    },
    {
      "inputs": [
        {
          "internalType": "address",
          "name": "from",
          "type": "address"
        },
        {
          "internalType": "address",
          "name": "to",
          "type": "address"
        },
        {
          "internalType": "uint256",
          "name": "tokenId",
          "type": "uint256"
        }
      ],
      "name": "transferFrom",
      "outputs": [],
      "stateMutability": "nonpayable",
      "type": "function"
    },
    {
      "inputs": [],
      "name": "createCollectible",
      "outputs": [
        {
          "internalType": "uint256",
          "name": "",
          "type": "uint256"
        }
      ],
      "stateMutability": "nonpayable",
      "type": "function"
    }
  ],
  "bytecode": "0x60806040523480156200001157600080fd5b506040518060400160405280600481526020017f54657374000000000000000000000000000000000000000000000000000000008152506040518060400160405280600381526020017f5453540000000000000000000000000000000000000000000000000000000000815250816000908051906020019062000096929190620000c0565b508060019080519060200190620000af929190620000c0565b5050506000600681905550620001d5565b828054620000ce906200019f565b90600052602060002090601f016020900481019282620000f257600085556200013e565b82601f106200010d57805160ff19168380011785556200013e565b828001600101855582156200013e579182015b828111156200013d57825182559160200191906001019062000120565b5b5090506200014d919062000151565b5090565b5b808211156200016c57600081600090555060010162000152565b5090565b7f4e487b7100000000000000000000000000000000000000000000000000000000600052602260045260246000fd5b60006002820490506001821680620001b857607f821691505b60208210811415620001cf57620001ce62000170565b5b50919050565b61277480620001e56000396000f3fe608060405234801561001057600080fd5b50600436106100f55760003560e01c80636352211e11610097578063b88d4fde11610066578063b88d4fde14610284578063c87b56dd146102a0578063d082e381146102d0578063e985e9c5146102ee576100f5565b80636352211e146101ea57806370a082311461021a57806395d89b411461024a578063a22cb46514610268576100f5565b8063095ea7b3116100d3578063095ea7b3146101785780631e6617101461019457806323b872dd146101b257806342842e0e146101ce576100f5565b806301ffc9a7146100fa57806306fdde031461012a578063081812fc14610148575b600080fd5b610114600480360381019061010f91906116f7565b61031e565b604051610121919061173f565b60405180910390f35b610132610400565b60405161013f91906117f3565b60405180910390f35b610162600480360381019061015d919061184b565b610492565b60405161016f91906118b9565b60405180910390f35b610192600480360381019061018d9190611900565b610517565b005b61019c61062f565b6040516101a9919061194f565b60405180910390f35b6101cc60048036038101906101c7919061196a565b61065d565b005b6101e860048036038101906101e3919061196a565b6106bd565b005b61020460048036038101906101ff919061184b565b6106dd565b60405161021191906118b9565b60405180910390f35b610234600480360381019061022f91906119bd565b61078f565b604051610241919061194f565b60405180910390f35b610252610847565b60405161025f91906117f3565b60405180910390f35b610282600480360381019061027d9190611a16565b6108d9565b005b61029e60048036038101906102999190611b8b565b6108ef565b005b6102ba60048036038101906102b5919061184b565b610951565b6040516102c791906117f3565b60405180910390f35b6102d86109f8565b6040516102e5919061194f565b60405180910390f35b61030860048036038101906103039190611c0e565b6109fe565b604051610315919061173f565b60405180910390f35b60007f80ac58cd000000000000000000000000000000000000000000000000000000007bffffffffffffffffffffffffffffffffffffffffffffffffffffffff1916827bffffffffffffffffffffffffffffffffffffffffffffffffffffffff191614806103e957507f5b5e139f000000000000000000000000000000000000000000000000000000007bffffffffffffffffffffffffffffffffffffffffffffffffffffffff1916827bffffffffffffffffffffffffffffffffffffffffffffffffffffffff1916145b806103f957506103f882610a92565b5b9050919050565b60606000805461040f90611c7d565b80601f016020809104026020016040519081016040528092919081815260200182805461043b90611c7d565b80156104885780601f1061045d57610100808354040283529160200191610488565b820191906000526020600020905b81548152906001019060200180831161046b57829003601f168201915b5050505050905090565b600061049d82610afc565b6104dc576040517f08c379a00000000000000000000000000000000000000000000000000000000081526004016104d390611d21565b60405180910390fd5b6004600083815260200190815260200160002060009054906101000a900473ffffffffffffffffffffffffffffffffffffffff169050919050565b6000610522826106dd565b90508073ffffffffffffffffffffffffffffffffffffffff168373ffffffffffffffffffffffffffffffffffffffff161415610593576040517f08c379a000000000000000000000000000000000000000000000000000000000815260040161058a90611db3565b60405180910390fd5b8073ffffffffffffffffffffffffffffffffffffffff166105b2610b68565b73ffffffffffffffffffffffffffffffffffffffff1614806105e157506105e0816105db610b68565b6109fe565b5b610620576040517f08c379a000000000000000000000000000000000000000000000000000000000815260040161061790611e45565b60405180910390fd5b61062a8383610b70565b505050565b60008060065490506106413382610c29565b60016006546106509190611e94565b6006819055508091505090565b61066e610668610b68565b82610c47565b6106ad576040517f08c379a00000000000000000000000000000000000000000000000000000000081526004016106a490611f5c565b60405180910390fd5b6106b8838383610d25565b505050565b6106d8838383604051806020016040528060008152506108ef565b505050565b6000806002600084815260200190815260200160002060009054906101000a900473ffffffffffffffffffffffffffffffffffffffff169050600073ffffffffffffffffffffffffffffffffffffffff168173ffffffffffffffffffffffffffffffffffffffff161415610786576040517f08c379a000000000000000000000000000000000000000000000000000000000815260040161077d90611fee565b60405180910390fd5b80915050919050565b60008073ffffffffffffffffffffffffffffffffffffffff168273ffffffffffffffffffffffffffffffffffffffff161415610800576040517f08c379a00000000000000000000000000000000000000000000000000000000081526004016107f790612080565b60405180910390fd5b600360008373ffffffffffffffffffffffffffffffffffffffff1673ffffffffffffffffffffffffffffffffffffffff168152602001908152602001600020549050919050565b60606001805461085690611c7d565b80601f016020809104026020016040519081016040528092919081815260200182805461088290611c7d565b80156108cf5780601f106108a4576101008083540402835291602001916108cf565b820191906000526020600020905b8154815290600101906020018083116108b257829003601f168201915b5050505050905090565b6108eb6108e4610b68565b8383610f81565b5050565b6109006108fa610b68565b83610c47565b61093f576040517f08c379a000000000000000000000000000000000000000000000000000000000815260040161093690611f5c565b60405180910390fd5b61094b848484846110ee565b50505050565b606061095c82610afc565b61099b576040517f08c379a000000000000000000000000000000000000000000000000000000000815260040161099290612112565b60405180910390fd5b60006109a561114a565b905060008151116109c557604051806020016040528060008152506109f0565b806109cf84611161565b6040516020016109e092919061216e565b6040516020818303038152906040525b915050919050565b60065481565b6000600560008473ffffffffffffffffffffffffffffffffffffffff1673ffffffffffffffffffffffffffffffffffffffff16815260200190815260200160002060008373ffffffffffffffffffffffffffffffffffffffff1673ffffffffffffffffffffffffffffffffffffffff16815260200190815260200160002060009054906101000a900460ff16905092915050565b60007f01ffc9a7000000000000000000000000000000000000000000000000000000007bffffffffffffffffffffffffffffffffffffffffffffffffffffffff1916827bffffffffffffffffffffffffffffffffffffffffffffffffffffffff1916149050919050565b60008073ffffffffffffffffffffffffffffffffffffffff166002600084815260200190815260200160002060009054906101000a900473ffffffffffffffffffffffffffffffffffffffff1673ffffffffffffffffffffffffffffffffffffffff1614159050919050565b600033905090565b816004600083815260200190815260200160002060006101000a81548173ffffffffffffffffffffffffffffffffffffffff021916908373ffffffffffffffffffffffffffffffffffffffff160217905550808273ffffffffffffffffffffffffffffffffffffffff16610be3836106dd565b73ffffffffffffffffffffffffffffffffffffffff167f8c5be1e5ebec7d5bd14f71427d1e84f3dd0314c0f7b2291e5b200ac8c7c3b92560405160405180910390a45050565b610c438282604051806020016040528060008152506112c2565b5050565b6000610c5282610afc565b610c91576040517f08c379a0000000000000000000000000000000000000000000000000000000008152600401610c8890612204565b60405180910390fd5b6000610c9c836106dd565b90508073ffffffffffffffffffffffffffffffffffffffff168473ffffffffffffffffffffffffffffffffffffffff161480610d0b57508373ffffffffffffffffffffffffffffffffffffffff16610cf384610492565b73ffffffffffffffffffffffffffffffffffffffff16145b80610d1c5750610d1b81856109fe565b5b91505092915050565b8273ffffffffffffffffffffffffffffffffffffffff16610d45826106dd565b73ffffffffffffffffffffffffffffffffffffffff1614610d9b576040517f08c379a0000000000000000000000000000000000000000000000000000000008152600401610d9290612296565b60405180910390fd5b600073ffffffffffffffffffffffffffffffffffffffff168273ffffffffffffffffffffffffffffffffffffffff161415610e0b576040517f08c379a0000000000000000000000000000000000000000000000000000000008152600401610e0290612328565b60405180910390fd5b610e1683838361131d565b610e21600082610b70565b6001600360008573ffffffffffffffffffffffffffffffffffffffff1673ffffffffffffffffffffffffffffffffffffffff1681526020019081526020016000206000828254610e719190612348565b925050819055506001600360008473ffffffffffffffffffffffffffffffffffffffff1673ffffffffffffffffffffffffffffffffffffffff1681526020019081526020016000206000828254610ec89190611e94565b92505081905550816002600083815260200190815260200160002060006101000a81548173ffffffffffffffffffffffffffffffffffffffff021916908373ffffffffffffffffffffffffffffffffffffffff160217905550808273ffffffffffffffffffffffffffffffffffffffff168473ffffffffffffffffffffffffffffffffffffffff167fddf252ad1be2c89b69c2b068fc378daa952ba7f163c4a11628f55a4df523b3ef60405160405180910390a4505050565b8173ffffffffffffffffffffffffffffffffffffffff168373ffffffffffffffffffffffffffffffffffffffff161415610ff0576040517f08c379a0000000000000000000000000000000000000000000000000000000008152600401610fe7906123c8565b60405180910390fd5b80600560008573ffffffffffffffffffffffffffffffffffffffff1673ffffffffffffffffffffffffffffffffffffffff16815260200190815260200160002060008473ffffffffffffffffffffffffffffffffffffffff1673ffffffffffffffffffffffffffffffffffffffff16815260200190815260200160002060006101000a81548160ff0219169083151502179055508173ffffffffffffffffffffffffffffffffffffffff168373ffffffffffffffffffffffffffffffffffffffff167f17307eab39ab6107e8899845ad3d59bd9653f200f220920489ca2b5937696c31836040516110e1919061173f565b60405180910390a3505050565b6110f9848484610d25565b61110584848484611322565b611144576040517f08c379a000000000000000000000000000000000000000000000000000000000815260040161113b9061245a565b60405180910390fd5b50505050565b606060405180602001604052806000815250905090565b606060008214156111a9576040518060400160405280600181526020017f300000000000000000000000000000000000000000000000000000000000000081525090506112bd565b600082905060005b600082146111db5780806111c49061247a565b915050600a826111d491906124f2565b91506111b1565b60008167ffffffffffffffff8111156111f7576111f6611a60565b5b6040519080825280601f01601f1916602001820160405280156112295781602001600182028036833780820191505090505b5090505b600085146112b6576001826112429190612348565b9150600a856112519190612523565b603061125d9190611e94565b60f81b81838151811061127357611272612554565b5b60200101907effffffffffffffffffffffffffffffffffffffffffffffffffffffffffffff1916908160001a905350600a856112af91906124f2565b945061122d565b8093505050505b919050565b6112cc83836114aa565b6112d96000848484611322565b611318576040517f08c379a000000000000000000000000000000000000000000000000000000000815260040161130f9061245a565b60405180910390fd5b505050565b505050565b60006113438473ffffffffffffffffffffffffffffffffffffffff16611678565b1561149d578373ffffffffffffffffffffffffffffffffffffffff1663150b7a0261136c610b68565b8786866040518563ffffffff1660e01b815260040161138e94939291906125d8565b6020604051808303816000875af19250505080156113ca57506040513d601f19601f820116820180604052508101906113c79190612639565b60015b61144d573d80600081146113fa576040519150601f19603f3d011682016040523d82523d6000602084013e6113ff565b606091505b50600081511415611445576040517f08c379a000000000000000000000000000000000000000000000000000000000815260040161143c9061245a565b60405180910390fd5b805181602001fd5b63150b7a0260e01b7bffffffffffffffffffffffffffffffffffffffffffffffffffffffff1916817bffffffffffffffffffffffffffffffffffffffffffffffffffffffff1916149150506114a2565b600190505b949350505050565b600073ffffffffffffffffffffffffffffffffffffffff168273ffffffffffffffffffffffffffffffffffffffff16141561151a576040517f08c379a0000000000000000000000000000000000000000000000000000000008152600401611511906126b2565b60405180910390fd5b61152381610afc565b15611563576040517f08c379a000000000000000000000000000000000000000000000000000000000815260040161155a9061271e565b60405180910390fd5b61156f6000838361131d565b6001600360008473ffffffffffffffffffffffffffffffffffffffff1673ffffffffffffffffffffffffffffffffffffffff16815260200190815260200160002060008282546115bf9190611e94565b92505081905550816002600083815260200190815260200160002060006101000a81548173ffffffffffffffffffffffffffffffffffffffff021916908373ffffffffffffffffffffffffffffffffffffffff160217905550808273ffffffffffffffffffffffffffffffffffffffff16600073ffffffffffffffffffffffffffffffffffffffff167fddf252ad1be2c89b69c2b068fc378daa952ba7f163c4a11628f55a4df523b3ef60405160405180910390a45050565b600080823b905060008111915050919050565b6000604051905090565b600080fd5b600080fd5b60007fffffffff0000000000000000000000000000000000000000000000000000000082169050919050565b6116d48161169f565b81146116df57600080fd5b50565b6000813590506116f1816116cb565b92915050565b60006020828403121561170d5761170c611695565b5b600061171b848285016116e2565b91505092915050565b60008115159050919050565b61173981611724565b82525050565b60006020820190506117546000830184611730565b92915050565b600081519050919050565b600082825260208201905092915050565b60005b83811015611794578082015181840152602081019050611779565b838111156117a3576000848401525b50505050565b6000601f19601f8301169050919050565b60006117c58261175a565b6117cf8185611765565b93506117df818560208601611776565b6117e8816117a9565b840191505092915050565b6000602082019050818103600083015261180d81846117ba565b905092915050565b6000819050919050565b61182881611815565b811461183357600080fd5b50565b6000813590506118458161181f565b92915050565b60006020828403121561186157611860611695565b5b600061186f84828501611836565b91505092915050565b600073ffffffffffffffffffffffffffffffffffffffff82169050919050565b60006118a382611878565b9050919050565b6118b381611898565b82525050565b60006020820190506118ce60008301846118aa565b92915050565b6118dd81611898565b81146118e857600080fd5b50565b6000813590506118fa816118d4565b92915050565b6000806040838503121561191757611916611695565b5b6000611925858286016118eb565b925050602061193685828601611836565b9150509250929050565b61194981611815565b82525050565b60006020820190506119646000830184611940565b92915050565b60008060006060848603121561198357611982611695565b5b6000611991868287016118eb565b93505060206119a2868287016118eb565b92505060406119b386828701611836565b9150509250925092565b6000602082840312156119d3576119d2611695565b5b60006119e1848285016118eb565b91505092915050565b6119f381611724565b81146119fe57600080fd5b50565b600081359050611a10816119ea565b92915050565b60008060408385031215611a2d57611a2c611695565b5b6000611a3b858286016118eb565b9250506020611a4c85828601611a01565b9150509250929050565b600080fd5b600080fd5b7f4e487b7100000000000000000000000000000000000000000000000000000000600052604160045260246000fd5b611a98826117a9565b810181811067ffffffffffffffff82111715611ab757611ab6611a60565b5b80604052505050565b6000611aca61168b565b9050611ad68282611a8f565b919050565b600067ffffffffffffffff821115611af657611af5611a60565b5b611aff826117a9565b9050602081019050919050565b82818337600083830152505050565b6000611b2e611b2984611adb565b611ac0565b905082815260208101848484011115611b4a57611b49611a5b565b5b611b55848285611b0c565b509392505050565b600082601f830112611b7257611b71611a56565b5b8135611b82848260208601611b1b565b91505092915050565b60008060008060808587031215611ba557611ba4611695565b5b6000611bb3878288016118eb565b9450506020611bc4878288016118eb565b9350506040611bd587828801611836565b925050606085013567ffffffffffffffff811115611bf657611bf561169a565b5b611c0287828801611b5d565b91505092959194509250565b60008060408385031215611c2557611c24611695565b5b6000611c33858286016118eb565b9250506020611c44858286016118eb565b9150509250929050565b7f4e487b7100000000000000000000000000000000000000000000000000000000600052602260045260246000fd5b60006002820490506001821680611c9557607f821691505b60208210811415611ca957611ca8611c4e565b5b50919050565b7f4552433732313a20617070726f76656420717565727920666f72206e6f6e657860008201527f697374656e7420746f6b656e0000000000000000000000000000000000000000602082015250565b6000611d0b602c83611765565b9150611d1682611caf565b604082019050919050565b60006020820190508181036000830152611d3a81611cfe565b9050919050565b7f4552433732313a20617070726f76616c20746f2063757272656e74206f776e6560008201527f7200000000000000000000000000000000000000000000000000000000000000602082015250565b6000611d9d602183611765565b9150611da882611d41565b604082019050919050565b60006020820190508181036000830152611dcc81611d90565b9050919050565b7f4552433732313a20617070726f76652063616c6c6572206973206e6f74206f7760008201527f6e6572206e6f7220617070726f76656420666f7220616c6c0000000000000000602082015250565b6000611e2f603883611765565b9150611e3a82611dd3565b604082019050919050565b60006020820190508181036000830152611e5e81611e22565b9050919050565b7f4e487b7100000000000000000000000000000000000000000000000000000000600052601160045260246000fd5b6000611e9f82611815565b9150611eaa83611815565b9250827fffffffffffffffffffffffffffffffffffffffffffffffffffffffffffffffff03821115611edf57611ede611e65565b5b828201905092915050565b7f4552433732313a207472616e736665722063616c6c6572206973206e6f74206f60008201527f776e6572206e6f7220617070726f766564000000000000000000000000000000602082015250565b6000611f46603183611765565b9150611f5182611eea565b604082019050919050565b60006020820190508181036000830152611f7581611f39565b9050919050565b7f4552433732313a206f776e657220717565727920666f72206e6f6e657869737460008201527f656e7420746f6b656e0000000000000000000000000000000000000000000000602082015250565b6000611fd8602983611765565b9150611fe382611f7c565b604082019050919050565b6000602082019050818103600083015261200781611fcb565b9050919050565b7f4552433732313a2062616c616e636520717565727920666f7220746865207a6560008201527f726f206164647265737300000000000000000000000000000000000000000000602082015250565b600061206a602a83611765565b91506120758261200e565b604082019050919050565b600060208201905081810360008301526120998161205d565b9050919050565b7f4552433732314d657461646174613a2055524920717565727920666f72206e6f60008201527f6e6578697374656e7420746f6b656e0000000000000000000000000000000000602082015250565b60006120fc602f83611765565b9150612107826120a0565b604082019050919050565b6000602082019050818103600083015261212b816120ef565b9050919050565b600081905092915050565b60006121488261175a565b6121528185612132565b9350612162818560208601611776565b80840191505092915050565b600061217a828561213d565b9150612186828461213d565b91508190509392505050565b7f4552433732313a206f70657261746f7220717565727920666f72206e6f6e657860008201527f697374656e7420746f6b656e0000000000000000000000000000000000000000602082015250565b60006121ee602c83611765565b91506121f982612192565b604082019050919050565b6000602082019050818103600083015261221d816121e1565b9050919050565b7f4552433732313a207472616e73666572206f6620746f6b656e2074686174206960008201527f73206e6f74206f776e0000000000000000000000000000000000000000000000602082015250565b6000612280602983611765565b915061228b82612224565b604082019050919050565b600060208201905081810360008301526122af81612273565b9050919050565b7f4552433732313a207472616e7366657220746f20746865207a65726f2061646460008201527f7265737300000000000000000000000000000000000000000000000000000000602082015250565b6000612312602483611765565b915061231d826122b6565b604082019050919050565b6000602082019050818103600083015261234181612305565b9050919050565b600061235382611815565b915061235e83611815565b92508282101561237157612370611e65565b5b828203905092915050565b7f4552433732313a20617070726f766520746f2063616c6c657200000000000000600082015250565b60006123b2601983611765565b91506123bd8261237c565b602082019050919050565b600060208201905081810360008301526123e1816123a5565b9050919050565b7f4552433732313a207472616e7366657220746f206e6f6e20455243373231526560008201527f63656976657220696d706c656d656e7465720000000000000000000000000000602082015250565b6000612444603283611765565b915061244f826123e8565b604082019050919050565b6000602082019050818103600083015261247381612437565b9050919050565b600061248582611815565b91507fffffffffffffffffffffffffffffffffffffffffffffffffffffffffffffffff8214156124b8576124b7611e65565b5b600182019050919050565b7f4e487b7100000000000000000000000000000000000000000000000000000000600052601260045260246000fd5b60006124fd82611815565b915061250883611815565b925082612518576125176124c3565b5b828204905092915050565b600061252e82611815565b915061253983611815565b925082612549576125486124c3565b5b828206905092915050565b7f4e487b7100000000000000000000000000000000000000000000000000000000600052603260045260246000fd5b600081519050919050565b600082825260208201905092915050565b60006125aa82612583565b6125b4818561258e565b93506125c4818560208601611776565b6125cd816117a9565b840191505092915050565b60006080820190506125ed60008301876118aa565b6125fa60208301866118aa565b6126076040830185611940565b8181036060830152612619818461259f565b905095945050505050565b600081519050612633816116cb565b92915050565b60006020828403121561264f5761264e611695565b5b600061265d84828501612624565b91505092915050565b7f4552433732313a206d696e7420746f20746865207a65726f2061646472657373600082015250565b600061269c602083611765565b91506126a782612666565b602082019050919050565b600060208201905081810360008301526126cb8161268f565b9050919050565b7f4552433732313a20746f6b656e20616c7265616479206d696e74656400000000600082015250565b6000612708601c83611765565b9150612713826126d2565b602082019050919050565b60006020820190508181036000830152612737816126fb565b905091905056fea264697066735822122002c01e1afc39298cb57cc76b87874578267aa87b1c4af7c1c482706c2fd1bbb764736f6c634300080a0033",
  "immutableReferences": {},
  "source": "// SPDX-License-Identifier: MIT\npragma solidity >=0.4.22 <0.9.0;\n\nimport \"@openzeppelin/contracts/token/ERC721/ERC721.sol\";\n\ncontract TestCollectible is ERC721 {\n    uint256 public tokenCounter;\n    constructor() ERC721 (\"Test\",\"TST\") {\n        tokenCounter = 0;\n    }\n\n    function createCollectible() public returns (uint256) {\n        uint256 newItemId = tokenCounter;\n        _safeMint(msg.sender, newItemId);\n        tokenCounter = tokenCounter + 1;\n        return newItemId;\n    }\n}",
  "sourcePath": "/Users/Guled/Visual Studio Code/Dutch-Auction/contracts/TestCollectible.sol",
  "compiler": {
    "name": "solc",
    "version": "0.8.10+commit.fc410830.Emscripten.clang"
  },
  "schemaVersion": "3.4.4",
  "updatedAt": "2022-01-11T18:47:14.051Z",
  "devdoc": {
    "kind": "dev",
    "methods": {
      "approve(address,uint256)": {
        "details": "See {IERC721-approve}."
      },
      "balanceOf(address)": {
        "details": "See {IERC721-balanceOf}."
      },
      "getApproved(uint256)": {
        "details": "See {IERC721-getApproved}."
      },
      "isApprovedForAll(address,address)": {
        "details": "See {IERC721-isApprovedForAll}."
      },
      "name()": {
        "details": "See {IERC721Metadata-name}."
      },
      "ownerOf(uint256)": {
        "details": "See {IERC721-ownerOf}."
      },
      "safeTransferFrom(address,address,uint256)": {
        "details": "See {IERC721-safeTransferFrom}."
      },
      "safeTransferFrom(address,address,uint256,bytes)": {
        "details": "See {IERC721-safeTransferFrom}."
      },
      "setApprovalForAll(address,bool)": {
        "details": "See {IERC721-setApprovalForAll}."
      },
      "supportsInterface(bytes4)": {
        "details": "See {IERC165-supportsInterface}."
      },
      "symbol()": {
        "details": "See {IERC721Metadata-symbol}."
      },
      "tokenURI(uint256)": {
        "details": "See {IERC721Metadata-tokenURI}."
      },
      "transferFrom(address,address,uint256)": {
        "details": "See {IERC721-transferFrom}."
      }
    },
    "version": 1
  },
  "userdoc": {
    "kind": "user",
    "methods": {},
    "version": 1
  }
}